:020000040000FA
:10000000700200106901000071010000730100001E
:100010007501000077010000790100000000000078
:100020000000000000000000000000007B01000054
:100030007D010000000000007F0100008101000040
:1000400083010000830100008301000083010000A0
:100050008301000083010000830100008301000090
:100060008301000083010000830100008301000080
:100070008301000083010000830100008301000070
:100080008301000083010000830100008301000060
:100090008301000083010000830100008301000050
:1000A0008301000083010000830100008301000040
:1000B0008301000083010000830100008301000030
:1000C00083010000830100008301000000F002F8BA
:1000D00000F03AF80AA090E8000C82448344AAF1A8
:1000E0000107DA4501D100F02FF8AFF2090EBAE8A6
:1000F0000F0013F0010F18BFFB1A43F0010318475C
:1001000080050000A0050000103A24BF78C878C11F
:10011000FAD8520724BF30C830C144BF04680C600D
:10012000704700000023002400250026103A28BF55
:1001300078C1FBD8520728BF30C148BF0B60704759
:100140001FB51FBD10B510BD00F06BFA1146FFF7CB
:10015000F7FF00F027F800F0CAF803B4FFF7F2FF4A
:1001600003BC00F087FA00000948804709480047AF
:10017000FEE7FEE7FEE7FEE7FEE7FEE7FEE7FEE757
:10018000FEE7FEE704480549034A054B70470000B7
:10019000A9040000CD0000007000001070020010E3
:1001A0007000001000F080F900F0AAF847480068DD
:1001B00047490840454908604648006840F47F6068
:1001C0004449086081E01020434908604148406D7F
:1001D00010F4805F3CD001204049086033E03E4885
:1001E00000683C49886100203D49086004E03C48C3
:1001F0000068401C3A49086039480068394988421B
:10020000F5D3354800683349C86100203449086097
:1002100004E033480068401C3149086030480068F9
:1002200030498842F5D32C48006840002A490860CC
:100230002848406D10F4805F00D108E0274800682E
:10024000401C26490860254800680928C7D33CE0BF
:1002500008202249086033E01F4800681D49886172
:1002600000201F49086004E01D480068401C1C492C
:1002700008601B4800681B498842F5D3164800688F
:100280001449C86100201649086004E01448006859
:10029000401C134908601248006812498842F5D38F
:1002A0000D48006840080C4908600A48406D10F489
:1002B000805F00D008E009480068401E07490860D8
:1002C000064800680028C7D100BF7CE700C0024094
:1002D000FF0000FF00C0092004000010080000100B
:1002E0000C000010A086010070477047704704465C
:1002F000AFF300802046FFF730FF7047FFFFFFFF9E
:100300002DE9F0477D480068C0F3016003287CD1E7
:100310007B48006810F0030006D0012833D0022883
:100320005FD003282ED100E000BF74480068C0F3FE
:10033000074000F101044FF002017248D0F8880034
:10034000C0F30E0000F10100A1FB00016E4B4FF065
:10035000000CA0FB037901FB039100FB0C1122466A
:100360006346384600F0E6F8054668480068C0B2C3
:1003700000F1010422464FF00003284600F0DAF8AD
:10038000634908605DE05D480068C0F3074000F124
:1003900001044FF002015B48D0F88800C0F30E0062
:1003A00000F10100A1FB00105A4A4FF0000CA1FB24
:1003B000027900FB029001FB0C012246634638469D
:1003C00000F0B8F8054651480068C0B200F10104D9
:1003D00022464FF00003284600F0ACF84C49086074
:1003E0002FE046480068C0F3074000F101044FF0D9
:1003F00002014448D0F88800C0F30E0000F101006B
:10040000A1FB00124FF4004000E01BE04FF000039E
:10041000A1FB007902FB009001FB03012246384654
:1004200000F088F8054639480068C0B200F10104C0
:1004300022464FF00003284600F07CF8344908605B
:1004400000BF2FE02E48006810F0030006D00128FE
:1004500010D0022819D0032823D100E000BF2B4878
:100460000068C0B200F101002749B1FBF0F0284953
:10047000086016E025480068C0B200F10100254977
:10048000B1FBF0F0224908600BE020480068C0B2E0
:1004900000F101004FF40041B1FBF0F01C4908608D
:1004A00000BF00BFBDE8F08720201B490860154849
:1004B000D0F8A00110F0200F05D000BF164800684A
:1004C00010F0400FFAD003201049086013480D497E
:1004D000C1F8A8011248134908604FF0010008490B
:1004E00008604FF00400A1F1040108600E480F49B4
:1004F000086040F201100E490860704788C00F4044
:100500000CC10F4000C00F4000093D0004C10F4066
:1005100000000010001BB700A0C10F4055515155FD
:1005200055545554ACC10F40DE872804C4C00F4059
:10053000C8C10F4053EA020C00F069802DE9F04B6E
:100540004FF00006002B1FBFB3FA83F503FA05F442
:1005500024FA05F65E4012BF1643B2FA82F502FA9B
:1005600005F4C5F120051EBF22FA05FC44EA0C047F
:10057000203556EA044C4FEA144418BF641C4FF06F
:1005800000084FF00009904271EB030C39D30029A9
:1005900019BFB1FA81F701FA07F6B0FA80F700FA4D
:1005A00007F6C7F120071EBF20FA07FC46EA0C0633
:1005B0002037B6FBF4FCA7EB0507103F07F01F0B35
:1005C000CBF120060CFA0BFB2CFA06F644BFB3461F
:1005D0000026202FA4BF5E464FF0000B5BEA060CFE
:1005E00008BF4FF0010B19EB0B09ABFB027C48EB8A
:1005F0000608C01B06FB02CC0BFB03CC71EB0C0105
:10060000C1E70B46024641464846BDE8F08B13B5AC
:100610004FF000004FF00001AFF30080BDE81C4038
:100620007047754600F022F8AE460500694653460D
:1006300020F00700854618B020B5FFF7A3FDBDE800
:1006400020404FF000064FF000074FF000084FF039
:10065000000B21F00701AC46ACE8C009ACE8C009CA
:10066000ACE8C009ACE8C0098D4670470048704747
:100670001000001001491820ABBEFEE72600020062
:10068000A00600000000001010000000080100009B
:10069000B0060000100000106002000024010000FD
:1006A000C0C62D0010000000000000000000000087
:04000005000000CD2A
:00000001FF
